{
  "_format": "hh-sol-artifact-1",
  "contractName": "Todo",
  "sourceName": "contracts/TODO.sol",
  "abi": [
    {
      "anonymous": false,
      "inputs": [],
      "name": "TodoCreated",
      "type": "event"
    },
    {
      "anonymous": false,
      "inputs": [
        {
          "indexed": true,
          "internalType": "uint256",
          "name": "index",
          "type": "uint256"
        }
      ],
      "name": "TodoUpdated",
      "type": "event"
    },
    {
      "inputs": [
        {
          "internalType": "string",
          "name": "_title",
          "type": "string"
        },
        {
          "internalType": "string",
          "name": "_description",
          "type": "string"
        }
      ],
      "name": "createTodo",
      "outputs": [],
      "stateMutability": "nonpayable",
      "type": "function"
    },
    {
      "inputs": [
        {
          "internalType": "uint256",
          "name": "_index",
          "type": "uint256"
        }
      ],
      "name": "getTodo",
      "outputs": [
        {
          "components": [
            {
              "internalType": "string",
              "name": "title",
              "type": "string"
            },
            {
              "internalType": "string",
              "name": "description",
              "type": "string"
            },
            {
              "internalType": "bool",
              "name": "isDone",
              "type": "bool"
            }
          ],
          "internalType": "struct Todo.Todoitem",
          "name": "",
          "type": "tuple"
        }
      ],
      "stateMutability": "view",
      "type": "function"
    },
    {
      "inputs": [],
      "name": "getTodos",
      "outputs": [
        {
          "components": [
            {
              "internalType": "string",
              "name": "title",
              "type": "string"
            },
            {
              "internalType": "string",
              "name": "description",
              "type": "string"
            },
            {
              "internalType": "bool",
              "name": "isDone",
              "type": "bool"
            }
          ],
          "internalType": "struct Todo.Todoitem[]",
          "name": "todos_",
          "type": "tuple[]"
        }
      ],
      "stateMutability": "view",
      "type": "function"
    },
    {
      "inputs": [
        {
          "internalType": "uint256",
          "name": "_index",
          "type": "uint256"
        }
      ],
      "name": "updateStatus",
      "outputs": [],
      "stateMutability": "nonpayable",
      "type": "function"
    }
  ],
  "bytecode": "0x608060405234801561001057600080fd5b50610eaa806100206000396000f3fe608060405234801561001057600080fd5b506004361061004c5760003560e01c80633380b99f14610051578063c33926cb1461006d578063d61e72011461008b578063dd68afb6146100a7575b600080fd5b61006b6004803603810190610066919061075e565b6100d7565b005b61007561019c565b6040516100829190610989565b60405180910390f35b6100a560048036038101906100a091906109e1565b61033a565b005b6100c160048036038101906100bc91906109e1565b610412565b6040516100ce9190610a65565b60405180910390f35b6100df6105e1565b828160000181905250818160200181905250600081908060018154018082558091505060019003906000526020600020906003020160009091909190915060008201518160000190816101329190610c93565b5060208201518160010190816101489190610c93565b5060408201518160020160006101000a81548160ff02191690831515021790555050507fa6fcee96a30794f237fc77caf4df9fb5e50743e5625e9b40ef311e48ccffb68760405160405180910390a1505050565b60606000805480602002602001604051908101604052809291908181526020016000905b8282101561033157838290600052602060002090600302016040518060600160405290816000820180546101f390610ab6565b80601f016020809104026020016040519081016040528092919081815260200182805461021f90610ab6565b801561026c5780601f106102415761010080835404028352916020019161026c565b820191906000526020600020905b81548152906001019060200180831161024f57829003601f168201915b5050505050815260200160018201805461028590610ab6565b80601f01602080910402602001604051908101604052809291908181526020018280546102b190610ab6565b80156102fe5780601f106102d3576101008083540402835291602001916102fe565b820191906000526020600020905b8154815290600101906020018083116102e157829003601f168201915b505050505081526020016002820160009054906101000a900460ff161515151581525050815260200190600101906101c0565b50505050905090565b600160008054905061034c9190610d94565b81111561038e576040517f08c379a000000000000000000000000000000000000000000000000000000000815260040161038590610e25565b60405180910390fd5b60008082815481106103a3576103a2610e45565b5b906000526020600020906003020190508060020160009054906101000a900460ff16158160020160006101000a81548160ff021916908315150217905550817fb8882fb2e94fcb7f70fbbdf7d256b863aba9b6ad05ecb0b9926fb408c64892c260405160405180910390a25050565b61041a6105e1565b600160008054905061042c9190610d94565b82111561046e576040517f08c379a000000000000000000000000000000000000000000000000000000000815260040161046590610e25565b60405180910390fd5b6000828154811061048257610481610e45565b5b90600052602060002090600302016040518060600160405290816000820180546104ab90610ab6565b80601f01602080910402602001604051908101604052809291908181526020018280546104d790610ab6565b80156105245780601f106104f957610100808354040283529160200191610524565b820191906000526020600020905b81548152906001019060200180831161050757829003601f168201915b5050505050815260200160018201805461053d90610ab6565b80601f016020809104026020016040519081016040528092919081815260200182805461056990610ab6565b80156105b65780601f1061058b576101008083540402835291602001916105b6565b820191906000526020600020905b81548152906001019060200180831161059957829003601f168201915b505050505081526020016002820160009054906101000a900460ff1615151515815250509050919050565b604051806060016040528060608152602001606081526020016000151581525090565b6000604051905090565b600080fd5b600080fd5b600080fd5b600080fd5b6000601f19601f8301169050919050565b7f4e487b7100000000000000000000000000000000000000000000000000000000600052604160045260246000fd5b61066b82610622565b810181811067ffffffffffffffff8211171561068a57610689610633565b5b80604052505050565b600061069d610604565b90506106a98282610662565b919050565b600067ffffffffffffffff8211156106c9576106c8610633565b5b6106d282610622565b9050602081019050919050565b82818337600083830152505050565b60006107016106fc846106ae565b610693565b90508281526020810184848401111561071d5761071c61061d565b5b6107288482856106df565b509392505050565b600082601f83011261074557610744610618565b5b81356107558482602086016106ee565b91505092915050565b600080604083850312156107755761077461060e565b5b600083013567ffffffffffffffff81111561079357610792610613565b5b61079f85828601610730565b925050602083013567ffffffffffffffff8111156107c0576107bf610613565b5b6107cc85828601610730565b9150509250929050565b600081519050919050565b600082825260208201905092915050565b6000819050602082019050919050565b600081519050919050565b600082825260208201905092915050565b60005b8381101561083c578082015181840152602081019050610821565b60008484015250505050565b600061085382610802565b61085d818561080d565b935061086d81856020860161081e565b61087681610622565b840191505092915050565b60008115159050919050565b61089681610881565b82525050565b600060608301600083015184820360008601526108b98282610848565b915050602083015184820360208601526108d38282610848565b91505060408301516108e8604086018261088d565b508091505092915050565b60006108ff838361089c565b905092915050565b6000602082019050919050565b600061091f826107d6565b61092981856107e1565b93508360208202850161093b856107f2565b8060005b85811015610977578484038952815161095885826108f3565b945061096383610907565b925060208a0199505060018101905061093f565b50829750879550505050505092915050565b600060208201905081810360008301526109a38184610914565b905092915050565b6000819050919050565b6109be816109ab565b81146109c957600080fd5b50565b6000813590506109db816109b5565b92915050565b6000602082840312156109f7576109f661060e565b5b6000610a05848285016109cc565b91505092915050565b60006060830160008301518482036000860152610a2b8282610848565b91505060208301518482036020860152610a458282610848565b9150506040830151610a5a604086018261088d565b508091505092915050565b60006020820190508181036000830152610a7f8184610a0e565b905092915050565b7f4e487b7100000000000000000000000000000000000000000000000000000000600052602260045260246000fd5b60006002820490506001821680610ace57607f821691505b602082108103610ae157610ae0610a87565b5b50919050565b60008190508160005260206000209050919050565b60006020601f8301049050919050565b600082821b905092915050565b600060088302610b497fffffffffffffffffffffffffffffffffffffffffffffffffffffffffffffffff82610b0c565b610b538683610b0c565b95508019841693508086168417925050509392505050565b6000819050919050565b6000610b90610b8b610b86846109ab565b610b6b565b6109ab565b9050919050565b6000819050919050565b610baa83610b75565b610bbe610bb682610b97565b848454610b19565b825550505050565b600090565b610bd3610bc6565b610bde818484610ba1565b505050565b5b81811015610c0257610bf7600082610bcb565b600181019050610be4565b5050565b601f821115610c4757610c1881610ae7565b610c2184610afc565b81016020851015610c30578190505b610c44610c3c85610afc565b830182610be3565b50505b505050565b600082821c905092915050565b6000610c6a60001984600802610c4c565b1980831691505092915050565b6000610c838383610c59565b9150826002028217905092915050565b610c9c82610802565b67ffffffffffffffff811115610cb557610cb4610633565b5b610cbf8254610ab6565b610cca828285610c06565b600060209050601f831160018114610cfd5760008415610ceb578287015190505b610cf58582610c77565b865550610d5d565b601f198416610d0b86610ae7565b60005b82811015610d3357848901518255600182019150602085019450602081019050610d0e565b86831015610d505784890151610d4c601f891682610c59565b8355505b6001600288020188555050505b505050505050565b7f4e487b7100000000000000000000000000000000000000000000000000000000600052601160045260246000fd5b6000610d9f826109ab565b9150610daa836109ab565b9250828203905081811115610dc257610dc1610d65565b5b92915050565b600082825260208201905092915050565b7f696e646578206f7574206f6620626f756e640000000000000000000000000000600082015250565b6000610e0f601283610dc8565b9150610e1a82610dd9565b602082019050919050565b60006020820190508181036000830152610e3e81610e02565b9050919050565b7f4e487b7100000000000000000000000000000000000000000000000000000000600052603260045260246000fdfea2646970667358221220e8cb7715017a47e580dfd990ba853c8386140f423005aee4a7dfa78fc843cb3664736f6c63430008110033",
  "linkReferences": {},
  "deployedLinkReferences": {}
}