{
  "_format": "hh-sol-artifact-1",
  "contractName": "areaCalculator",
  "sourceName": "contracts/AreaCalculator.sol",
  "abi": [
    {
      "inputs": [
        {
          "internalType": "uint256",
          "name": "_length",
          "type": "uint256"
        },
        {
          "internalType": "uint256",
          "name": "width",
          "type": "uint256"
        }
      ],
      "name": "Rectangle",
      "outputs": [
        {
          "internalType": "uint256",
          "name": "",
          "type": "uint256"
        }
      ],
      "stateMutability": "nonpayable",
      "type": "function"
    },
    {
      "inputs": [
        {
          "internalType": "uint256",
          "name": "_side",
          "type": "uint256"
        }
      ],
      "name": "Square",
      "outputs": [
        {
          "internalType": "uint256",
          "name": "",
          "type": "uint256"
        }
      ],
      "stateMutability": "nonpayable",
      "type": "function"
    },
    {
      "inputs": [
        {
          "internalType": "uint256",
          "name": "_base",
          "type": "uint256"
        },
        {
          "internalType": "uint256",
          "name": "_height",
          "type": "uint256"
        }
      ],
      "name": "Triangle",
      "outputs": [
        {
          "internalType": "uint256",
          "name": "",
          "type": "uint256"
        }
      ],
      "stateMutability": "nonpayable",
      "type": "function"
    },
    {
      "inputs": [],
      "name": "getArea",
      "outputs": [
        {
          "internalType": "uint256",
          "name": "",
          "type": "uint256"
        }
      ],
      "stateMutability": "view",
      "type": "function"
    }
  ],
  "bytecode": "0x608060405234801561001057600080fd5b50610361806100206000396000f3fe608060405234801561001057600080fd5b506004361061004c5760003560e01c806341b5039f1461005157806385be3e62146100815780639b70ac3f1461009f578063a9309993146100cf575b600080fd5b61006b600480360381019061006691906101ab565b6100ff565b60405161007891906101e7565b60405180910390f35b61008961011d565b60405161009691906101e7565b60405180910390f35b6100b960048036038101906100b49190610202565b610126565b6040516100c691906101e7565b60405180910390f35b6100e960048036038101906100e49190610202565b610145565b6040516100f691906101e7565b60405180910390f35b6000818261010d9190610271565b6000819055506000549050919050565b60008054905090565b600081836101349190610271565b600081905550600054905092915050565b6000600282846101559190610271565b61015f91906102fa565b600081905550600054905092915050565b600080fd5b6000819050919050565b61018881610175565b811461019357600080fd5b50565b6000813590506101a58161017f565b92915050565b6000602082840312156101c1576101c0610170565b5b60006101cf84828501610196565b91505092915050565b6101e181610175565b82525050565b60006020820190506101fc60008301846101d8565b92915050565b6000806040838503121561021957610218610170565b5b600061022785828601610196565b925050602061023885828601610196565b9150509250929050565b7f4e487b7100000000000000000000000000000000000000000000000000000000600052601160045260246000fd5b600061027c82610175565b915061028783610175565b9250817fffffffffffffffffffffffffffffffffffffffffffffffffffffffffffffffff04831182151516156102c0576102bf610242565b5b828202905092915050565b7f4e487b7100000000000000000000000000000000000000000000000000000000600052601260045260246000fd5b600061030582610175565b915061031083610175565b9250826103205761031f6102cb565b5b82820490509291505056fea26469706673582212204b29842685efc4deac62c6b04f4be40961c0eb3d6896693c7b93ad4b461bf41964736f6c634300080c0033",
  "linkReferences": {},
  "deployedLinkReferences": {}
}