{
  "_format": "hh-sol-artifact-1",
  "contractName": "StudentRecord",
  "sourceName": "contracts/Student Registration.sol",
  "abi": [
    {
      "anonymous": false,
      "inputs": [
        {
          "indexed": false,
          "internalType": "uint256",
          "name": "id",
          "type": "uint256"
        },
        {
          "indexed": false,
          "internalType": "string",
          "name": "name",
          "type": "string"
        },
        {
          "indexed": false,
          "internalType": "uint256",
          "name": "age",
          "type": "uint256"
        },
        {
          "indexed": false,
          "internalType": "string",
          "name": "course",
          "type": "string"
        }
      ],
      "name": "StudentAdded",
      "type": "event"
    },
    {
      "anonymous": false,
      "inputs": [
        {
          "indexed": false,
          "internalType": "uint256",
          "name": "id",
          "type": "uint256"
        },
        {
          "indexed": false,
          "internalType": "string",
          "name": "name",
          "type": "string"
        },
        {
          "indexed": false,
          "internalType": "uint256",
          "name": "age",
          "type": "uint256"
        },
        {
          "indexed": false,
          "internalType": "string",
          "name": "course",
          "type": "string"
        }
      ],
      "name": "StudentUpdated",
      "type": "event"
    },
    {
      "inputs": [
        {
          "internalType": "string",
          "name": "_name",
          "type": "string"
        },
        {
          "internalType": "uint256",
          "name": "_age",
          "type": "uint256"
        },
        {
          "internalType": "string",
          "name": "_course",
          "type": "string"
        }
      ],
      "name": "addStudent",
      "outputs": [],
      "stateMutability": "nonpayable",
      "type": "function"
    },
    {
      "inputs": [
        {
          "internalType": "uint256",
          "name": "_id",
          "type": "uint256"
        }
      ],
      "name": "getStudentRecord",
      "outputs": [
        {
          "internalType": "string",
          "name": "name",
          "type": "string"
        },
        {
          "internalType": "uint256",
          "name": "age",
          "type": "uint256"
        },
        {
          "internalType": "string",
          "name": "course",
          "type": "string"
        }
      ],
      "stateMutability": "view",
      "type": "function"
    },
    {
      "inputs": [
        {
          "internalType": "uint256",
          "name": "_id",
          "type": "uint256"
        }
      ],
      "name": "removeStudentRecord",
      "outputs": [],
      "stateMutability": "nonpayable",
      "type": "function"
    },
    {
      "inputs": [
        {
          "internalType": "uint256",
          "name": "_id",
          "type": "uint256"
        },
        {
          "internalType": "string",
          "name": "_name",
          "type": "string"
        },
        {
          "internalType": "uint256",
          "name": "_age",
          "type": "uint256"
        },
        {
          "internalType": "string",
          "name": "_course",
          "type": "string"
        }
      ],
      "name": "updateStudent",
      "outputs": [],
      "stateMutability": "nonpayable",
      "type": "function"
    }
  ],
  "bytecode": "0x608060405234801561001057600080fd5b50610f7f806100206000396000f3fe608060405234801561001057600080fd5b506004361061004c5760003560e01c806315982a2a146100515780636b478d6214610083578063c11e15e41461009f578063ed32a8a1146100bb575b600080fd5b61006b600480360381019061006691906105da565b6100d7565b60405161007a939291906106a6565b60405180910390f35b61009d600480360381019061009891906105da565b61029a565b005b6100b960048036038101906100b49190610820565b61033a565b005b6100d560048036038101906100d091906108bf565b6103ea565b005b60606000606060008060008681526020019081526020016000206040518060800160405290816000820154815260200160018201805461011690610979565b80601f016020809104026020016040519081016040528092919081815260200182805461014290610979565b801561018f5780601f106101645761010080835404028352916020019161018f565b820191906000526020600020905b81548152906001019060200180831161017257829003601f168201915b50505050508152602001600282015481526020016003820180546101b290610979565b80601f01602080910402602001604051908101604052809291908181526020018280546101de90610979565b801561022b5780601f106102005761010080835404028352916020019161022b565b820191906000526020600020905b81548152906001019060200180831161020e57829003601f168201915b5050505050815250509050600081600001510361027d576040517f08c379a0000000000000000000000000000000000000000000000000000000008152600401610274906109f6565b60405180910390fd5b806020015181604001518260600151935093509350509193909250565b600080600083815260200190815260200160002060000154036102f2576040517f08c379a00000000000000000000000000000000000000000000000000000000081526004016102e990610a62565b60405180910390fd5b60008082815260200190815260200160002060008082016000905560018201600061031d9190610533565b60028201600090556003820160006103359190610533565b505050565b600080600086815260200190815260200160002090506000816000015403610397576040517f08c379a000000000000000000000000000000000000000000000000000000000815260040161038e90610ace565b60405180910390fd5b6000845111156103b457838160010190816103b29190610c9a565b505b600083146103c6578281600201819055505b6000825111156103e357818160030190816103e19190610c9a565b505b5050505050565b60006103f46104dc565b90505b600080600083815260200190815260200160002060000154146104235761041c6104dc565b90506103f7565b6040518060800160405280828152602001858152602001848152602001838152506000808381526020019081526020016000206000820151816000015560208201518160010190816104759190610c9a565b506040820151816002015560608201518160030190816104959190610c9a565b509050507f1be1384d0e46750bf3c73e3077bce8ea0c00b17ea89a797f35d39e43210f5fed818585856040516104ce9493929190610d6c565b60405180910390a150505050565b60008042336040516020016104f2929190610e5a565b604051602081830303815290604052805190602001209050600060016103e761051b9190610eb5565b8260001c6105299190610f18565b9050809250505090565b50805461053f90610979565b6000825580601f106105515750610570565b601f01602090049060005260206000209081019061056f9190610573565b5b50565b5b8082111561058c576000816000905550600101610574565b5090565b6000604051905090565b600080fd5b600080fd5b6000819050919050565b6105b7816105a4565b81146105c257600080fd5b50565b6000813590506105d4816105ae565b92915050565b6000602082840312156105f0576105ef61059a565b5b60006105fe848285016105c5565b91505092915050565b600081519050919050565b600082825260208201905092915050565b60005b83811015610641578082015181840152602081019050610626565b60008484015250505050565b6000601f19601f8301169050919050565b600061066982610607565b6106738185610612565b9350610683818560208601610623565b61068c8161064d565b840191505092915050565b6106a0816105a4565b82525050565b600060608201905081810360008301526106c0818661065e565b90506106cf6020830185610697565b81810360408301526106e1818461065e565b9050949350505050565b600080fd5b600080fd5b7f4e487b7100000000000000000000000000000000000000000000000000000000600052604160045260246000fd5b61072d8261064d565b810181811067ffffffffffffffff8211171561074c5761074b6106f5565b5b80604052505050565b600061075f610590565b905061076b8282610724565b919050565b600067ffffffffffffffff82111561078b5761078a6106f5565b5b6107948261064d565b9050602081019050919050565b82818337600083830152505050565b60006107c36107be84610770565b610755565b9050828152602081018484840111156107df576107de6106f0565b5b6107ea8482856107a1565b509392505050565b600082601f830112610807576108066106eb565b5b81356108178482602086016107b0565b91505092915050565b6000806000806080858703121561083a5761083961059a565b5b6000610848878288016105c5565b945050602085013567ffffffffffffffff8111156108695761086861059f565b5b610875878288016107f2565b9350506040610886878288016105c5565b925050606085013567ffffffffffffffff8111156108a7576108a661059f565b5b6108b3878288016107f2565b91505092959194509250565b6000806000606084860312156108d8576108d761059a565b5b600084013567ffffffffffffffff8111156108f6576108f561059f565b5b610902868287016107f2565b9350506020610913868287016105c5565b925050604084013567ffffffffffffffff8111156109345761093361059f565b5b610940868287016107f2565b9150509250925092565b7f4e487b7100000000000000000000000000000000000000000000000000000000600052602260045260246000fd5b6000600282049050600182168061099157607f821691505b6020821081036109a4576109a361094a565b5b50919050565b7f53747564656e7420646f6573206e6f742065786973742e000000000000000000600082015250565b60006109e0601783610612565b91506109eb826109aa565b602082019050919050565b60006020820190508181036000830152610a0f816109d3565b9050919050565b7f53747564656e7420646f6573206e6f7420657869737400000000000000000000600082015250565b6000610a4c601683610612565b9150610a5782610a16565b602082019050919050565b60006020820190508181036000830152610a7b81610a3f565b9050919050565b7f53747564656e7420646f6573206e6f742065786973742c000000000000000000600082015250565b6000610ab8601783610612565b9150610ac382610a82565b602082019050919050565b60006020820190508181036000830152610ae781610aab565b9050919050565b60008190508160005260206000209050919050565b60006020601f8301049050919050565b600082821b905092915050565b600060088302610b507fffffffffffffffffffffffffffffffffffffffffffffffffffffffffffffffff82610b13565b610b5a8683610b13565b95508019841693508086168417925050509392505050565b6000819050919050565b6000610b97610b92610b8d846105a4565b610b72565b6105a4565b9050919050565b6000819050919050565b610bb183610b7c565b610bc5610bbd82610b9e565b848454610b20565b825550505050565b600090565b610bda610bcd565b610be5818484610ba8565b505050565b5b81811015610c0957610bfe600082610bd2565b600181019050610beb565b5050565b601f821115610c4e57610c1f81610aee565b610c2884610b03565b81016020851015610c37578190505b610c4b610c4385610b03565b830182610bea565b50505b505050565b600082821c905092915050565b6000610c7160001984600802610c53565b1980831691505092915050565b6000610c8a8383610c60565b9150826002028217905092915050565b610ca382610607565b67ffffffffffffffff811115610cbc57610cbb6106f5565b5b610cc68254610979565b610cd1828285610c0d565b600060209050601f831160018114610d045760008415610cf2578287015190505b610cfc8582610c7e565b865550610d64565b601f198416610d1286610aee565b60005b82811015610d3a57848901518255600182019150602085019450602081019050610d15565b86831015610d575784890151610d53601f891682610c60565b8355505b6001600288020188555050505b505050505050565b6000608082019050610d816000830187610697565b8181036020830152610d93818661065e565b9050610da26040830185610697565b8181036060830152610db4818461065e565b905095945050505050565b6000819050919050565b610dda610dd5826105a4565b610dbf565b82525050565b600073ffffffffffffffffffffffffffffffffffffffff82169050919050565b6000610e0b82610de0565b9050919050565b60008160601b9050919050565b6000610e2a82610e12565b9050919050565b6000610e3c82610e1f565b9050919050565b610e54610e4f82610e00565b610e31565b82525050565b6000610e668285610dc9565b602082019150610e768284610e43565b6014820191508190509392505050565b7f4e487b7100000000000000000000000000000000000000000000000000000000600052601160045260246000fd5b6000610ec0826105a4565b9150610ecb836105a4565b9250828201905080821115610ee357610ee2610e86565b5b92915050565b7f4e487b7100000000000000000000000000000000000000000000000000000000600052601260045260246000fd5b6000610f23826105a4565b9150610f2e836105a4565b925082610f3e57610f3d610ee9565b5b82820690509291505056fea2646970667358221220040f82f3aeb5c174da0fa6bde136187201fadfcbab2aee949b9fd8cb45303b4164736f6c63430008180033",
  "linkReferences": {},
  "deployedLinkReferences": {}
}